{
  "contractName": "EtherManager",
  "abi": [
    {
      "constant": true,
      "inputs": [
        {
          "name": "",
          "type": "address"
        }
      ],
      "name": "receiversMap",
      "outputs": [
        {
          "name": "",
          "type": "bool"
        }
      ],
      "payable": false,
      "stateMutability": "view",
      "type": "function"
    },
    {
      "constant": false,
      "inputs": [
        {
          "name": "_receiver",
          "type": "address"
        }
      ],
      "name": "giftEth",
      "outputs": [
        {
          "name": "",
          "type": "uint256"
        }
      ],
      "payable": false,
      "stateMutability": "nonpayable",
      "type": "function"
    },
    {
      "constant": true,
      "inputs": [],
      "name": "owner",
      "outputs": [
        {
          "name": "",
          "type": "address"
        }
      ],
      "payable": false,
      "stateMutability": "view",
      "type": "function"
    },
    {
      "constant": true,
      "inputs": [],
      "name": "weiAmountToGift",
      "outputs": [
        {
          "name": "",
          "type": "uint256"
        }
      ],
      "payable": false,
      "stateMutability": "view",
      "type": "function"
    },
    {
      "constant": false,
      "inputs": [
        {
          "name": "_owner",
          "type": "address"
        }
      ],
      "name": "changeOwner",
      "outputs": [],
      "payable": false,
      "stateMutability": "nonpayable",
      "type": "function"
    },
    {
      "constant": false,
      "inputs": [],
      "name": "confirmOwner",
      "outputs": [],
      "payable": false,
      "stateMutability": "nonpayable",
      "type": "function"
    },
    {
      "constant": true,
      "inputs": [
        {
          "name": "",
          "type": "uint256"
        }
      ],
      "name": "receivers",
      "outputs": [
        {
          "name": "",
          "type": "address"
        }
      ],
      "payable": false,
      "stateMutability": "view",
      "type": "function"
    },
    {
      "constant": true,
      "inputs": [],
      "name": "newOwner",
      "outputs": [
        {
          "name": "",
          "type": "address"
        }
      ],
      "payable": false,
      "stateMutability": "view",
      "type": "function"
    },
    {
      "constant": false,
      "inputs": [
        {
          "name": "_weiAmountToGift",
          "type": "uint256"
        }
      ],
      "name": "setAmountToGift",
      "outputs": [],
      "payable": false,
      "stateMutability": "nonpayable",
      "type": "function"
    },
    {
      "inputs": [],
      "payable": true,
      "stateMutability": "payable",
      "type": "constructor"
    },
    {
      "payable": true,
      "stateMutability": "payable",
      "type": "fallback"
    }
  ],
  "bytecode": "0x6060604052670de0b6b3a7640000600255336000806101000a81548173ffffffffffffffffffffffffffffffffffffffff021916908373ffffffffffffffffffffffffffffffffffffffff1602179055506108288061005f6000396000f300606060405260043610610099576000357c0100000000000000000000000000000000000000000000000000000000900463ffffffff1680630ce5071e1461009b5780631c466fc8146100ec5780638da5cb5b146101395780639166a70d1461018e578063a6f9dae1146101b7578063bd9b6d86146101f0578063bfd772fc14610205578063d4ee1d9014610268578063d68eeb48146102bd575b005b34156100a657600080fd5b6100d2600480803573ffffffffffffffffffffffffffffffffffffffff169060200190919050506102e0565b604051808215151515815260200191505060405180910390f35b34156100f757600080fd5b610123600480803573ffffffffffffffffffffffffffffffffffffffff16906020019091905050610300565b6040518082815260200191505060405180910390f35b341561014457600080fd5b61014c6104fd565b604051808273ffffffffffffffffffffffffffffffffffffffff1673ffffffffffffffffffffffffffffffffffffffff16815260200191505060405180910390f35b341561019957600080fd5b6101a1610522565b6040518082815260200191505060405180910390f35b34156101c257600080fd5b6101ee600480803573ffffffffffffffffffffffffffffffffffffffff16906020019091905050610528565b005b34156101fb57600080fd5b6102036105ed565b005b341561021057600080fd5b61022660048080359060200190919050506106d2565b604051808273ffffffffffffffffffffffffffffffffffffffff1673ffffffffffffffffffffffffffffffffffffffff16815260200191505060405180910390f35b341561027357600080fd5b61027b610711565b604051808273ffffffffffffffffffffffffffffffffffffffff1673ffffffffffffffffffffffffffffffffffffffff16815260200191505060405180910390f35b34156102c857600080fd5b6102de6004808035906020019091905050610737565b005b60036020528060005260406000206000915054906101000a900460ff1681565b60003373ffffffffffffffffffffffffffffffffffffffff166000809054906101000a900473ffffffffffffffffffffffffffffffffffffffff1673ffffffffffffffffffffffffffffffffffffffff1614151561035d57600080fd5b6002543073ffffffffffffffffffffffffffffffffffffffff1631101580156103d6575060001515600360008473ffffffffffffffffffffffffffffffffffffffff1673ffffffffffffffffffffffffffffffffffffffff16815260200190815260200160002060009054906101000a900460ff161515145b15156103e157600080fd5b8173ffffffffffffffffffffffffffffffffffffffff166108fc6002549081150290604051600060405180830381858888f19350505050151561042357600080fd5b6001600360008473ffffffffffffffffffffffffffffffffffffffff1673ffffffffffffffffffffffffffffffffffffffff16815260200190815260200160002060006101000a81548160ff0219169083151502179055506004805480600101828161048f91906107ab565b9160005260206000209001600084909190916101000a81548173ffffffffffffffffffffffffffffffffffffffff021916908373ffffffffffffffffffffffffffffffffffffffff160217905550503073ffffffffffffffffffffffffffffffffffffffff16319050919050565b6000809054906101000a900473ffffffffffffffffffffffffffffffffffffffff1681565b60025481565b3373ffffffffffffffffffffffffffffffffffffffff166000809054906101000a900473ffffffffffffffffffffffffffffffffffffffff1673ffffffffffffffffffffffffffffffffffffffff1614151561058357600080fd5b60008173ffffffffffffffffffffffffffffffffffffffff16141515156105a957600080fd5b80600160006101000a81548173ffffffffffffffffffffffffffffffffffffffff021916908373ffffffffffffffffffffffffffffffffffffffff16021790555050565b3373ffffffffffffffffffffffffffffffffffffffff16600160009054906101000a900473ffffffffffffffffffffffffffffffffffffffff1673ffffffffffffffffffffffffffffffffffffffff1614151561064957600080fd5b600160009054906101000a900473ffffffffffffffffffffffffffffffffffffffff166000806101000a81548173ffffffffffffffffffffffffffffffffffffffff021916908373ffffffffffffffffffffffffffffffffffffffff160217905550600160006101000a81549073ffffffffffffffffffffffffffffffffffffffff0219169055565b6004818154811015156106e157fe5b90600052602060002090016000915054906101000a900473ffffffffffffffffffffffffffffffffffffffff1681565b600160009054906101000a900473ffffffffffffffffffffffffffffffffffffffff1681565b3373ffffffffffffffffffffffffffffffffffffffff166000809054906101000a900473ffffffffffffffffffffffffffffffffffffffff1673ffffffffffffffffffffffffffffffffffffffff1614151561079257600080fd5b6000811115156107a157600080fd5b8060028190555050565b8154818355818115116107d2578183600052602060002091820191016107d191906107d7565b5b505050565b6107f991905b808211156107f55760008160009055506001016107dd565b5090565b905600a165627a7a72305820adf40fc7923bc29f88ac0b56770dff7230953eae500cd84cb1928e78a4f3c11c0029",
  "source": "pragma solidity ^ 0.4.13;\r\n\r\ncontract Owned {\r\n\r\n    address public owner;\r\n    address public newOwner;\r\n\r\n    function Owned() public {\r\n        owner = msg.sender;\r\n    }\r\n\r\n    modifier onlyOwner {\r\n        require(owner == msg.sender);\r\n        _;\r\n    }\r\n   \r\n    function changeOwner(address _owner) onlyOwner external {\r\n        require(_owner != 0);\r\n        newOwner = _owner;\r\n    }\r\n\r\n    function confirmOwner() external {\r\n        require(newOwner == msg.sender);\r\n        owner = newOwner;\r\n        delete newOwner;\r\n    }\r\n}\r\n\r\ncontract EtherManager is Owned {\r\n\r\n    uint256 public weiAmountToGift = 1 ether;\r\n\r\n    mapping(address => bool) public receiversMap;\r\n    address[] public receivers;\r\n\r\n    function EtherManager() public payable {}\r\n\r\n    function giftEth (address _receiver) public onlyOwner returns(uint256) {\r\n        require(this.balance >= weiAmountToGift && receiversMap[_receiver] == false);\r\n        _receiver.transfer(weiAmountToGift);\r\n        receiversMap[_receiver] = true;\r\n        receivers.push(_receiver);\r\n        return this.balance;\r\n    }\r\n\r\n    function () payable public {}\r\n\r\n    function setAmountToGift (uint256 _weiAmountToGift) public onlyOwner {\r\n        require(_weiAmountToGift > 0);\r\n        weiAmountToGift = _weiAmountToGift;\r\n    }\r\n}",
  "sourcePath": "C:\\Users\\User\\Documents\\truffle-tests\\mvp-test\\contracts\\EtherManager.sol",
  "compiler": {
    "name": "solc",
    "version": "0.4.18+commit.9cf6e910.Emscripten.clang"
  },
  "schemaVersion": "1.0.1",
  "updatedAt": "2017-11-14T13:36:16.167Z"
}