{
  "contractName": "Owned",
  "abi": [
    {
      "constant": true,
      "inputs": [],
      "name": "owner",
      "outputs": [
        {
          "name": "",
          "type": "address"
        }
      ],
      "payable": false,
      "stateMutability": "view",
      "type": "function"
    },
    {
      "constant": false,
      "inputs": [
        {
          "name": "_owner",
          "type": "address"
        }
      ],
      "name": "changeOwner",
      "outputs": [],
      "payable": false,
      "stateMutability": "nonpayable",
      "type": "function"
    },
    {
      "constant": false,
      "inputs": [],
      "name": "confirmOwner",
      "outputs": [],
      "payable": false,
      "stateMutability": "nonpayable",
      "type": "function"
    },
    {
      "constant": true,
      "inputs": [],
      "name": "newOwner",
      "outputs": [
        {
          "name": "",
          "type": "address"
        }
      ],
      "payable": false,
      "stateMutability": "view",
      "type": "function"
    },
    {
      "inputs": [],
      "payable": false,
      "stateMutability": "nonpayable",
      "type": "constructor"
    }
  ],
  "bytecode": "0x6060604052341561000f57600080fd5b336000806101000a81548173ffffffffffffffffffffffffffffffffffffffff021916908373ffffffffffffffffffffffffffffffffffffffff1602179055506103808061005e6000396000f300606060405260043610610062576000357c0100000000000000000000000000000000000000000000000000000000900463ffffffff1680638da5cb5b14610067578063a6f9dae1146100bc578063bd9b6d86146100f5578063d4ee1d901461010a575b600080fd5b341561007257600080fd5b61007a61015f565b604051808273ffffffffffffffffffffffffffffffffffffffff1673ffffffffffffffffffffffffffffffffffffffff16815260200191505060405180910390f35b34156100c757600080fd5b6100f3600480803573ffffffffffffffffffffffffffffffffffffffff16906020019091905050610184565b005b341561010057600080fd5b610108610249565b005b341561011557600080fd5b61011d61032e565b604051808273ffffffffffffffffffffffffffffffffffffffff1673ffffffffffffffffffffffffffffffffffffffff16815260200191505060405180910390f35b6000809054906101000a900473ffffffffffffffffffffffffffffffffffffffff1681565b3373ffffffffffffffffffffffffffffffffffffffff166000809054906101000a900473ffffffffffffffffffffffffffffffffffffffff1673ffffffffffffffffffffffffffffffffffffffff161415156101df57600080fd5b60008173ffffffffffffffffffffffffffffffffffffffff161415151561020557600080fd5b80600160006101000a81548173ffffffffffffffffffffffffffffffffffffffff021916908373ffffffffffffffffffffffffffffffffffffffff16021790555050565b3373ffffffffffffffffffffffffffffffffffffffff16600160009054906101000a900473ffffffffffffffffffffffffffffffffffffffff1673ffffffffffffffffffffffffffffffffffffffff161415156102a557600080fd5b600160009054906101000a900473ffffffffffffffffffffffffffffffffffffffff166000806101000a81548173ffffffffffffffffffffffffffffffffffffffff021916908373ffffffffffffffffffffffffffffffffffffffff160217905550600160006101000a81549073ffffffffffffffffffffffffffffffffffffffff0219169055565b600160009054906101000a900473ffffffffffffffffffffffffffffffffffffffff16815600a165627a7a723058201679b54c4c5c9b0f433a3e6bedfd82c585de16f8b96295d5c0b825d58e6566c30029",
  "source": "pragma solidity ^ 0.4.13;\r\n\r\ncontract Owned {\r\n\r\n    address public owner;\r\n    address public newOwner;\r\n\r\n    function Owned() public {\r\n        owner = msg.sender;\r\n    }\r\n\r\n    modifier onlyOwner {\r\n        require(owner == msg.sender);\r\n        _;\r\n    }\r\n   \r\n    function changeOwner(address _owner) onlyOwner external {\r\n        require(_owner != 0);\r\n        newOwner = _owner;\r\n    }\r\n\r\n    function confirmOwner() external {\r\n        require(newOwner == msg.sender);\r\n        owner = newOwner;\r\n        delete newOwner;\r\n    }\r\n}\r\n\r\ncontract EtherManager is Owned {\r\n\r\n    uint256 public weiAmountToGift = 1 ether;\r\n\r\n    mapping(address => bool) public receiversMap;\r\n    address[] public receivers;\r\n\r\n    function EtherManager() public payable {}\r\n\r\n    function giftEth (address _receiver) public onlyOwner returns(uint256) {\r\n        require(this.balance >= weiAmountToGift && receiversMap[_receiver] == false);\r\n        _receiver.transfer(weiAmountToGift);\r\n        receiversMap[_receiver] = true;\r\n        receivers.push(_receiver);\r\n        return this.balance;\r\n    }\r\n\r\n    function () payable public {}\r\n\r\n    function setAmountToGift (uint256 _weiAmountToGift) public onlyOwner {\r\n        require(_weiAmountToGift > 0);\r\n        weiAmountToGift = _weiAmountToGift;\r\n    }\r\n}",
  "sourcePath": "C:\\Users\\User\\Documents\\truffle-tests\\mvp-test\\contracts\\EtherManager.sol",
  "compiler": {
    "name": "solc",
    "version": "0.4.18+commit.9cf6e910.Emscripten.clang"
  },
  "schemaVersion": "1.0.1",
  "updatedAt": "2017-11-14T13:36:16.167Z"
}