{
  "contractName": "StringHolder",
  "abi": [
    {
      "constant": false,
      "inputs": [
        {
          "name": "newString",
          "type": "string"
        }
      ],
      "name": "setString",
      "outputs": [],
      "payable": false,
      "stateMutability": "nonpayable",
      "type": "function"
    },
    {
      "constant": true,
      "inputs": [],
      "name": "getString",
      "outputs": [
        {
          "name": "",
          "type": "string"
        }
      ],
      "payable": false,
      "stateMutability": "view",
      "type": "function"
    }
  ],
  "bytecode": "0x6060604052341561000f57600080fd5b6102e38061001e6000396000f30060606040526004361061004c576000357c0100000000000000000000000000000000000000000000000000000000900463ffffffff1680637fcaf6661461005157806389ea642f146100ae575b600080fd5b341561005c57600080fd5b6100ac600480803590602001908201803590602001908080601f0160208091040260200160405190810160405280939291908181526020018383808284378201915050505050509190505061013c565b005b34156100b957600080fd5b6100c1610156565b6040518080602001828103825283818151815260200191508051906020019080838360005b838110156101015780820151818401526020810190506100e6565b50505050905090810190601f16801561012e5780820380516001836020036101000a031916815260200191505b509250505060405180910390f35b80600090805190602001906101529291906101fe565b5050565b61015e61027e565b60008054600181600116156101000203166002900480601f0160208091040260200160405190810160405280929190818152602001828054600181600116156101000203166002900480156101f45780601f106101c9576101008083540402835291602001916101f4565b820191906000526020600020905b8154815290600101906020018083116101d757829003601f168201915b5050505050905090565b828054600181600116156101000203166002900490600052602060002090601f016020900481019282601f1061023f57805160ff191683800117855561026d565b8280016001018555821561026d579182015b8281111561026c578251825591602001919060010190610251565b5b50905061027a9190610292565b5090565b602060405190810160405280600081525090565b6102b491905b808211156102b0576000816000905550600101610298565b5090565b905600a165627a7a7230582087a99e2d4a195c6652656f9cbfdfc44c7dc3671b384e90baf136abff40d17e0c0029",
  "source": "pragma solidity ^0.4.10;\r\n\r\ncontract StringHolder {\r\n    \r\n    string savedString;\r\n\r\n    function setString( string newString ) {\r\n        savedString = newString;\r\n    }\r\n\r\n    function getString() constant returns( string ) {\r\n        return savedString;\r\n    }\r\n}",
  "sourcePath": "C:\\Users\\User\\Documents\\truffle-tests\\mvp-test\\contracts\\StringHolder.sol",
  "compiler": {
    "name": "solc",
    "version": "0.4.18+commit.9cf6e910.Emscripten.clang"
  },
  "schemaVersion": "1.0.1",
  "updatedAt": "2017-11-14T13:36:16.167Z"
}